:020000040800F2
:1000000078AB0120ED030008C97A0108253E0108FC
:10001000395901088D640008357702080000000096
:1000200000000000000000000000000021030008A4
:10003000677F0008000000006503000841210208F6
:100040000704000807040008070400080704000864
:100050000704000807040008070400080704000854
:100060000704000807040008070400080704000844
:100070000704000807040008070400080704000834
:100080000704000807040008070400080704000824
:100090000704000807040008070400080704000814
:1000A0000704000807040008070400080704000804
:1000B000E5210208070400080704000807040008F7
:1000C00007040008070400080704000807040008E4
:1000D00007040008117702081D7702082977020833
:1000E000070400080704000807040008F1210208BB
:1000F00007040008070400080704000807040008B4
:1001000007040008070400080704000807040008A3
:100110000704000807040008070400080704000893
:100120000704000807040008070400080704000883
:100130000704000809E40008070400080704000891
:100140000704000807040008070400080704000863
:100150000704000807040008070400080704000853
:100160000704000807040008070400080704000843
:100170000704000807040008070400080000000046
:100180000704000800F002F800F0BAF80AA090E8AE
:10019000000C82448344AAF10107DA4501D100F042
:1001A000AFF8AFF2090EBAE80F0013F0010F18BF55
:1001B000FB1A43F00103184748F0070088F00700D6
:1001C0000A444FF0000C10F8013B13F0070408BF7D
:1001D00010F8014B1D1108BF10F8015B641E05D01B
:1001E00010F8016B641E01F8016BF9D113F0080FD0
:1001F0001EBF10F8014BAD1C0C1B09D16D1E58BF62
:1002000001F801CBFAD505E014F8016B01F8016B98
:100210006D1EF9D59142D6D370470000002300240B
:1002200000250026103A28BF78C1FBD8520728BF06
:1002300030C148BF0B6070476E2900F0A787702956
:1002400000F03783662915F0EFA2652915F0ECA2BE
:10025000672915F0E9A2612915F0E8A203681B0AD5
:1002600028BF41F08001692900F0A882642900F0CC
:10027000A582752900F0A2826F2901F0A680782955
:1002800000F00383E92901F04180E42901F03E8078
:10029000F52901F03B80EF2901F0A380F82900F057
:1002A00002830368DB0928BF41F08001632900F065
:1002B000B087732900F0B587E32901F09585F3290C
:1002C00001F09A85002070471FB59DE8030000F0FB
:1002D000B1FE00F00AFC01F08DF9040000200021BD
:1002E00054F082FC401C60600020002154F092FC1D
:1002F000E06001F0DFF81FBD10B501F044F910BD5A
:1003000001F071FE1146FFF7DFFF38F007FC02F045
:1003100021F903B4FFF7F0FF03BC02F06BF9000012
:10032000224B19680868B0E8F00F80F30988BFF322
:100330006F8F4FF0000080F311884EF00D0E704764
:100340000000000006480068006880F3088862B674
:1003500061B6BFF34F8FBFF36F8F00DF00BF00BFE9
:1003600008ED00E0EFF30980BFF36F8F0F4B1A68C1
:1003700020E9F00F106008B54FF0500080F31188AD
:10038000BFF34F8FBFF36F8F4AF076FE4FF0000040
:1003900080F31188BDE8084019680868B0E8F00FDC
:1003A00080F30988BFF36F8F704700BF14000020EF
:1003B000EFF30580704700000B49D1F800C04A6890
:1003C0005CF8043B1068184442F8040B8C4528BFC5
:1003D000A1F1DC0C8A4228BFA1F1DC02C1F800C007
:1003E0004A6020F00040704714EB01200948804724
:1003F00009480047FEE7FEE7FEE7FEE7FEE7FEE707
:10040000FEE7FEE7FEE7FEE704480549054A064B1E
:1004100070470000E32102088501000878A501204B
:1004200078AB012078A7012078A7012070B5064697
:1004300000F0E0FD056806F10B0020F00704B4426F
:100440009CBF002070BD2B466A68BAB11068A042FC
:1004500010D304F1080188423CBF5068586007D3AC
:100460005168101941601168091B016058601460DF
:10047000101D70BD13465268002AE7D12146284658
:1004800000F0C4FD0028DED170BD70B50446051F24
:1004900000F0B0FD0068002C14BF446870BD002C53
:1004A00018BFAC423CBF20466468F8D301680A1804
:1004B000AA4218BF456003D12A680546114401606D
:1004C00028684119A1421CBF6C6070BD61686960F9
:1004D00021680844286070BD53EA020C00F069806E
:1004E0002DE9F04B4FF00006002B1FBFB3FA83F548
:1004F00003FA05F424FA05F65E4012BF1643B2FA79
:1005000082F502FA05F4C5F120051EBF22FA05FCAA
:1005100044EA0C04203556EA044C4FEA144418BF50
:10052000641C4FF000084FF00009904271EB030C7F
:1005300039D3002919BFB1FA81F701FA07F6B0FAE9
:1005400080F700FA07F6C7F120071EBF20FA07FC64
:1005500046EA0C062037B6FBF4FCA7EB0507103F74
:1005600007F01F0BCBF120060CFA0BFB2CFA06F65A
:1005700044BFB3460026202FA4BF5E464FF0000BB9
:100580005BEA060C08BF4FF0010B19EB0B09ABFB44
:10059000027C48EB0608C01B06FB02CC0BFB03CC1D
:1005A00071EB0C01C1E70B46024641464846BDE8E7
:1005B000F08B13B54FF000004FF00001AFF3008057
:1005C000BDE81C407047B2F120030AD5C2F12003F8
:1005D00001FA02F120FA03F300FA02F041EA030102
:1005E000704700FA03F14FF000007047B2F12003AA
:1005F0000AD5C2F1200320FA02F001FA03F321FA2E
:1006000002F140EA0300704721FA03F04FF00001C5
:10061000704710B5044600F0E5FC0068005DC006B8
:1006200002D504F1200010BD204610BD0FB41CB54A
:10063000084B06AA7B4469460090059800F0BFFD70
:1006400004460020694600F0CDFD20461CBC5DF844
:1006500014FB0000AD0B00007CB51D4616460C00D7
:10066000009001D02044401E074B7B442A46694637
:100670000190304600F0A3FD05461CB100206946FC
:1006800000F0B0FD28467CBD810B00000FB404498A
:1006900010B503AA029800F0C9FD10BC5DF814FB68
:1006A000E4E901200FB4014610B504AA039800F054
:1006B000BDFD10BC5DF814FB0FB41CB5084B06AAB9
:1006C0007B4469460090059800F079FD04460020BF
:1006D000694600F087FD20461CBC5DF814FB000055
:1006E000210B00000FB47CB50C0009AA009001D0CA
:1006F0002044401E084B7B4469460190089800F056
:100700005EFD05461CB10020694600F06BFD2846E1
:100710007CBC5DF814FB0000F50A000070B50446CF
:1007200085690068C10601D5302600E02026C00793
:1007300007D070BDD4E9012130469047206A401CA3
:1007400020626D1EF6D570BD70B5044685690078CF
:10075000C00707D170BDD4E9012120209047206A4D
:10076000401C20626D1EF6D570BD70B50C46054666
:10077000012A05D02878800600D5EA69002302E026
:10078000012305E05B1C934202D2E05C0028F9D112
:10079000A869E618C01AA861286A18442862284681
:1007A000FFF7BCFF04E0D5E9012114F8010B9047E5
:1007B000B442F8D32846FFF7C7FF70BD2DE9F041DA
:1007C0000646002410687529314616A510D000F0A1
:1007D00072FC002802DA404213A507E031688A075C
:1007E00001D512A502E0490704D511A5012401E0B5
:1007F00000F06AFC00210A2206F1240709E0B0FBA0
:10080000F2FCB0FBF2F302FB1C00303078541846C7
:10081000491C0028F3D123462A463046BDE8F04162
:1008200000F05BBC000000002D0000002B00000069
:1008300020000000F0B40D460188090502D5214CC6
:100840007C4402E01F4C7C440E34002100F124065D
:1008500008E002F00F071209E75D42EA03721B0984
:100860007754491C52EA0307F3D102780023120798
:1008700004D5702D06D009B1022311342246F0BCF4
:1008800000F02BBC01231034F8E770B504460D4688
:100890002146106800F018FC024629462046BDE8B3
:1008A00070400023C6E7D21D22F00703D3E90023DE
:1008B000C0E70368126843F0200303600823C361A4
:1008C0000023B7E787D907002DE9F05F8946044682
:1008D0004FF0000ADFF874B1FB44C0F820A02046B6
:1008E000E1688847002874D0252806D0D4E9012182
:1008F0009047206A401C2062F1E700265F462046B0
:10090000E16888472028054607DB312D05D2781994
:1009100010F8200C08B10643F1E7B00701D526F026
:100920000406C4F81CA00027C4F818A02A2D09D07A
:10093000284629F0AEFE38B304EB8708303DC8F8EE
:10094000185019E059F8041B204604EB8702916106
:10095000E1688847012F054618D1E069002820DAB0
:1009600026F020061DE0D8F8180000EB800005EB0B
:1009700040003038C8F818002046E168884705462E
:1009800029F087FE0028EED1012F0AD02E2D08D1A4
:100990002046E16888477F1C0546022F46F0200666
:1009A000C4DBA069002803DA404246F00106A061DA
:1009B000F00701D026F010066C2D0BD0682D09D061
:1009C0004C2D39D06A2D35D0742D35D07A2D33D0B9
:1009D00016E038E0E1682F4620468847B8420546D1
:1009E00009D16C2F26D04FF48060E1680643204681
:1009F0008847054604E06C2F1AD04FF480700643F8
:100A00000DB3A5F14100192802D8203546F400663F
:100A10004A462946204626604E46FFF70DFC80B127
:100A200001280BD0F61D26F0070000F1080956E753
:100A30004020E4E78020D8E70020D6E706F104094B
:100A40004DE7284652E7206ABDE8F09F17D9070016
:100A50002DE9F04791460F4680460446002614F8DB
:100A6000015B2DB100F0BEFA0068405DC007F6D111
:100A70002B2D02D02D2D18D0641E4A463946204613
:100A800000F0C8FC27B13968A14201D1C7F8008045
:100A90004FF0020471050BD54042002803DD00F041
:100AA000ADFA0460A007BDE8F08746F48066E4E78D
:100AB0000028F8DA00F0A2FA04606FF00040F2E7D4
:100AC0000B4910B5A1F17C020A4CC2E9371237215B
:100AD00006E000EB104342F82130074B00FB0340D7
:100AE0000B1EA1F10101F4DC10BD0120E8E70000BC
:100AF000B4EA0120E119D666CD0D0100401ECAB24C
:100B000010F8011F8A4202D00029F9D10020704755
:100B100030B505460B462A4613F8014B12F8010B77
:100B200008B1A042F8D01CB1002802D06D1CF1E73A
:100B3000284630BD40EA010310B59B070FD1042AB7
:100B40000DD310C808C9121F9C42F8D020BA19BA98
:100B5000884201D9012010BD4FF0FF3010BD1AB1FD
:100B6000D30703D0521C07E0002010BD10F8013B52
:100B700011F8014B1B1B07D110F8013B11F8014B79
:100B80001B1B01D1921EF1D1184610BD10B5431C9C
:100B900002E010F8011B71B18107FAD14FF0013268
:100BA00002C88C1A8C4314EAC211F9D0C01A0A0682
:100BB00003D0C01E10BDC01A10BD0A0401D0801E93
:100BC00010BD0902FCD0401E10BD40EA010370B503
:100BD0009B072ED14FF00136042A2AD308C810C92A
:100BE0009D1B9D43121F15EAC61517D0D8B2E1B25E
:100BF000401A50EA056110D198B2A1B2401A50EAE9
:100C000005410AD123F07F4024F07F41401A50EA89
:100C1000052102D1180EA0EB146070BDA342DBD0F9
:100C200018BA21BA884201D9012070BD4FF0FF30B7
:100C300070BD0AB9002070BD10F8013B11F8014BDE
:100C400063B1A3420AD1521E08D010F8013B11F83B
:100C5000014B1BB1A34201D1521EEDD1181B70BD37
:100C6000032A40F2308010F0030C00F0158011F8D8
:100C7000013BBCF1020F624498BF11F801CB00F8B0
:100C8000013B38BF11F8013BA2F1040298BF00F804
:100C900001CB38BF00F8013B11F0030300F067807F
:100CA000083AC0F0088051F8043B083A51F804CBE8
:100CB000A0E80810F5E7121D5CBF51F8043B40F8AE
:100CC000043BAFF30080D20724BF11F8013B11F8B9
:100CD00001CB48BF11F8012B24BF00F8013B00F8FD
:100CE00001CB48BF00F8012B7047431A28BF9A4236
:100CF0007FF6B6AF032A1044114440F2268010F06C
:100D0000030F1EBF11F8013D521E00F8013D10F007
:100D1000030F7FF4F6AF11F0030300F06D80083A83
:100D2000C0F00B8051F8043D083A51F804CD40F86A
:100D3000043D40F804CDFFF7F3BF121D5CBF51F82E
:100D4000043D40F8043DAFF30080D20724BF11F802
:100D5000013D11F801CD48BF11F8012C24BF00F866
:100D6000013D00F801CD48BF00F8012C704710B5D7
:100D7000203AC0F00B80B1E81850203AA0E8185093
:100D8000B1E81850A0E81850BFF4F5AF5FEA027C54
:100D900024BFB1E81850A0E8185044BF18C918C0C3
:100DA000BDE810405FEA827C24BF51F8043B40F864
:100DB000043B08BF7047D20728BF31F8023B48BF49
:100DC00011F8012B28BF20F8023B48BF00F8012B87
:100DD0007047431A28BF9A427FF6C9AF104410F0FB
:100DE000030F11441EBF11F8013D521E00F8013DD2
:100DF00010F0030F7FF4F6AF103AC0F00A8010B580
:100E000031E91850103A20E91850BFF4F9AFBDE8A5
:100E10001040530724BF31E9081020E9081044BFEF
:100E200051F8043D40F8043D12F0030F08BF70472D
:100E3000D20728BF31F8023D48BF11F8012C28BF66
:100E400020F8023D48BF00F8012C704701F0FF0375
:100E5000114601B543EA032242EA024200F00BF8D0
:100E600001BD02F0FF0343EA032242EA024200F01E
:100E700002B84FF000020429C0F0128010F0030CF9
:100E800000F01B80CCF1040CBCF1020F18BF00F87D
:100E9000012BA8BF20F8022BA1EB0C0100F00DB82C
:100EA0005FEAC17C24BF00F8012B00F8012B48BF8A
:100EB00000F8012B70474FF0000200B5134694462E
:100EC0009646203922BFA0E80C50A0E80C50B1F1A2
:100ED0002001BFF4F7AF090728BFA0E80C5048BFB6
:100EE0000CC05DF804EB890028BF40F8042B08BF54
:100EF000704748BF20F8022B11F0804F18BF00F850
:100F0000012B704710B5044610F0030F08BF11F015
:100F1000030F40F015804FF0013E121FC0F20E800B
:100F200051F8043BA3EB0E0C2CEA030C1CEACE1C7C
:100F300008BF40F8043BF0D0A1F1040102F1040223
:100F4000521E08DB11F8013B002B00F8013BF7D1E2
:100F50001146FFF78EFF204610BD00004FF0013C08
:100F600050F8042B51F8043B9A4221D1A2EB0C0318
:100F7000934313EACC1317D150F8042B51F8043BD8
:100F80009A4215D1A2EB0C03934313EACC130BD175
:100F900050F8042B51F8043B9A4209D1A2EB0C0300
:100FA000934313EACC13DBD04FF00000704700BF2F
:100FB000D01A01BAB1FA81F101F0180122FA01F058
:100FC000CB40C1F12001DBB2C0B2C01A2CFA01F350
:100FD000D11A914311EAC311E6D1704770477047A7
:100FE0007047000010B500F005FB001D10BD00BFEC
:100FF000F93B05000048704724EB0120004870478A
:101000001CEB0120704770477047704738B50446A5
:101010000A4600206946AFF30080002808BF38BDAB
:1010200002460099204600F0E9FA012038BD01206F
:1010300000F0D1BFF8B5AFF30080054600200C46A4
:10104000102000BF0646A819A0420DD932466946B5
:101050000020AFF30080070008BF00F0BCFF00983D
:10106000A04218BF0546C419FFF7C4FF0560074634
:10107000F01D20F007004619284600F00AF8B44297
:1010800008BFF8BDA21B31463868BDE8F84000F043
:10109000B5BA00210160C0E9011070471020704707
:1010A00010B5FFF7ABFF006810BD10B50446FFF7A1
:1010B000A5FF046010BD09684A0501D540B270471C
:1010C000C905FCD500B2704709684A0501D5C0B210
:1010D0007047C905FCD580B270472DE9F0470D4631
:1010E00099469246044600F124080168880604D512
:1010F000E06921F01001216000E00120A84201DD3B
:10110000471B00E00027A1697A1902EB0900081AC1
:10111000A0612078C00602D42046FFF7FFFA00261F
:1011200008E0D4E901211AF806009047206A401C23
:10113000761C20624E45F4DB2078C0060AD5204696
:10114000FFF7ECFA06E0D4E9012130209047206A4D
:10115000401C2062381EA7F10107F4DC07E0D4E947
:10116000012118F805009047206A401C2062281EC3
:10117000A5F10105F3DC2046FFF7E6FA207800062A
:1011800002D50220BDE8F0870120FBE71168026864
:10119000006A530501D508700AE0D30501D508801F
:1011A00006E0130603D5C217C1E9000200E008609B
:1011B0000120704701694A1C02610878704700B538
:1011C0008FB0CDE901310021059105497944CDE980
:1011D000031011466846FFF777FB0FB000BD000013
:1011E000E5FFFFFF0A6802F8010B0A607047D1E9CA
:1011F00000239A4202D2531C0B601070704710B546
:10120000436913B1AFF3008001E0FFF7AEFA0120AC
:1012100010BD127800F124010A7000224A700122E8
:10122000EDE711684FF0FF32E9E70000074B70B5BA
:101230000D467B44FFF7C3FF0446284600F0E0FD5F
:1012400010B14FF0FF3070BD204670BDCD140300CB
:101250002DE9FF5F15468A460446DFF8AC80F84466
:101260000027D8E900103E46CDE9001010E03AF81A
:1012700016106A4602A800F087FE411C07D02178AC
:10128000890603D5E269391891420DD80744761CC6
:101290002078800602D5E069B84205DDAE42E6DB83
:1012A0003AF816000028E2D1A069C01BA0612046D0
:1012B000FFF734FAD8E90010CDE90010002017E05C
:1012C0003AF818106A4602A800F05EFEB0F1FF3F3F
:1012D00081460BD000250DF1080B05E0D4E9012172
:1012E0001BF8050090476D1C4D45F7D308F1010030
:1012F000B0428046E4DB206A384420622046FFF793
:1013000023FABDE8FF9F000066D007002DE9F041F9
:101310008046D21D22F007020025D2E90002F529FD
:1013200015A614D0011E72F1000106DA0023D0EBDD
:10133000030063EB020211A608E0D8F800108B0747
:1013400001D50FA602E0490701D50EA601251146D9
:10135000002408F1240704E000F06AF930323A551D
:10136000641C50EA0102F7D12B4632462146404622
:10137000BDE8F041FFF7B1BE000000002D00000005
:101380002B0000002000000030B4002100F12404F4
:1013900008E002F00705D208303542EA4372DB0864
:1013A0006554491C52EA0305F3D10468002310A2D6
:1013B000250707D5A40600D421B1C46901230DA2D5
:1013C000641EC46130BCFFF788BE10B504462146D8
:1013D0001068FFF779FE02462046BDE81040002362
:1013E000D2E7D21D22F00701D1E90023CCE70000AB
:1013F00000000000300000003A2800D2303820F011
:101400002002412A01D3A2F13700884201D34FF0D4
:10141000FF3070472DE9F05F824615468B46002766
:101420000AF10104B9460078302801D09DB113E0DB
:1014300014F8010B0127782803D0582801D045B1B2
:101440000AE00DB1102D07D1002714F8010B10256B
:1014500002E0082500E00A250026B0460EE005FB64
:10146000080005FB06F101271FFA80F801EB104682
:10147000B6F5803F00D3B94614F8010B2946FFF7B3
:10148000BBFF0028EBDABBF1000F05D00FB1641EE3
:1014900000E05446CBF80040B9F1000F06D0FFF74A
:1014A000ADFD02210160C81EBDE8F09F48EA06407C
:1014B000FAE7000010B542485421FFF7FCFC414810
:1014C0005421FFF7F8FC40485421FFF7F4FC3F4952
:1014D0003B483C4A3F4B08603D490A603A49196025
:1014E000531C0365481C1065012008653B48344ABD
:1014F00039A1784400F0ACFC20B9384878440A3867
:1015000000F062FD37482F4A35A1784400F0A0FC76
:1015100020B9344878440A3800F056FD32482A4A47
:101520002FA1784400F094FC20B92F4878440A3861
:1015300000F04AFD40232248DC000021224600F052
:1015400063FC20B125487844543800F03DFD1D4827
:1015500022464023002100F057FC20B12148784466
:10156000543800F031FD184822461023002100F0C5
:101570004BFC002806D01C487844BDE81040563883
:1015800000F022BD10BD104870B5006D20F00104C0
:101590000B4800F0D3FC0B4800F0D0FC0A4800F0E8
:1015A000CDFC09E0206D20F00105204600F0C6FCCE
:1015B0002046FEF76AFF2C46002CF3D170BD0000D8
:1015C000CCA40120E4E9012020A5012050C3012082
:1015D0008C01002054C3012072000000BECC070023
:1015E00077000000ADCC07009DCC07000048704795
:1015F0001CEB0120004870473CEB0120034640688B
:101600008C46002818BF88423CBF03464068F8D388
:1016100018681844884207D00CF1030020F0070036
:10162000001D411A521A0146081D0A60FEF72DBF1F
:1016300030B5B0F10A024FEA900E71F100034EEAA4
:10164000817EB0EB0E0061EB91014FEA101E4EEA75
:10165000017E10EB0E0041EB11114FEA102E4EEA05
:10166000016E10EB0E0041EB11214FEA104E4EEAD5
:10167000014E10EB0E0041EB1141401841F1000109
:101680004FEAD00040EA41704FEAD10110EB8005EB
:101690004FEA810444EA907444EB01046D1944EB71
:1016A0000404521BA3414FF0000348BF0A3200D587
:1016B00030BD401C41F1000130BD70472DE9FF4FA6
:1016C0000C461E464FF0FF378BB0D2E90001DDF823
:1016D00060800A908A46C1F30A5505B93D4600214B
:1016E00008464FF00000BAF1000F00F4400005DAA0
:1016F00000EB80004FF4400101EA50004FEA90599E
:10170000B9F1010F00DDB9460A9850EA4A000ED03F
:1017100044F61050A5F2FF3545432F14B8F1000FE1
:101720001ED07542291E1EDDC9F100021CE0B8F171
:10173000010F4FF0000001D0302103E0F24305E03B
:101740002154401CB042FBDB3046002200212154D2
:101750000B99C1F80880C1E900200FB0BDE8F08FF7
:10176000BD1B6D1CDEE74A4600DA694206A800F0A0
:101770009FFC06AB93E8070003AB83E807005046E5
:101780000A9900F07EFF8DE80700A0F500501F3891
:1017900000900398002D0ADD42F21F014A460844DA
:1017A000002303A90390684601F0E7F909E0A0F5DA
:1017B00000504A461F38002303A90390684601F0F1
:1017C000F1F98DE807000004000C03D04FF0FF3062
:1017D000410800E01046B8F1000F03D0002200924B
:1017E00015461EE0751E05D4FFF722FF3032625504
:1017F0006D1EF9D5B3460122084302D000227F1C9A
:1018000004E02078302801D100227F1E002A0997A9
:1018100084D01DE0112D07DAFFF70AFF3032625540
:101820006D1C50EA0102F5D1084302D00098C8B1FE
:101830000EE00021681E05E0235C625C63542254C4
:10184000401E491C8142F7DBAB46A81B401E099095
:10185000002004F80B000B98099AC0F80880C0E932
:10186000002B7AE711264FF0000857E72DE9F04FDB
:1018700088460446D21D22F0070191B0D1E900014B
:10188000CDE90A0128F04BF902460B98C00F01D0B0
:101890002D2007E02068810701D52B2002E02021C0
:1018A00001EAC000032A099001D0072A05DB03469C
:1018B0004146204600F0BCFB0BE12078800601D5B4
:1018C000E06900E00620B8F1650F814606D0B8F166
:1018D000660F18D0B8F1670F70D131E00020B9F170
:1018E000110F009001DB112301E009F101030AAAA5
:1018F00001A90CA8FFF7E2FEDDE90C70002609F152
:101900000105834647E001204B4600904FF0004719
:101910000AAA01A90CA8FFF7D1FEDDE90DB00C99C8
:101920005D46002610B909F101000D18B9EB05005C
:1019300003D4C0F1FF3609F10105A5EB09002BE046
:10194000B9F1010F01DA4FF001090020B9F1110FCF
:101950000090484601DD112300E003460AAA01A9D0
:101960000CA8FFF7ABFEDDE90C704D460026834660
:10197000207800070AD4AB4500DA5D4601A8012DA6
:1019800004DD411911F8011C302907D04F4502DA56
:1019900017F1040F04DA012082460FE06D1EEEE716
:1019A000002F02DCED1B3E4403E0781CA84200DD62
:1019B0007D1CB81B00F1010A4FF00047207800079A
:1019C00003D4AA4501DB4FF0FF3A0021B7F1004FE5
:1019D0000DF143088DF8431024D002202B23002F53
:1019E00001DA7F422D230A21021EA0F1010000DC52
:1019F0005FB197FBF1FC97FBF1F201FB1C7C1746F2
:101A00000CF1300C08F801CDEEE7A8F101000370ED
:101A10002188090501D5452100E06521A0F10108D3
:101A200000F8011C09980FA9A1EB0807FF1D00B1E0
:101A30000120411901EBEA70A1693844081A401EDF
:101A4000A0612078C00602D42046FEF767FE099800
:101A500028B1D4E901219047206A401C20622078F7
:101A6000C00622D52046FEF759FE1EE0002E04DBFC
:101A7000B34502DD01A8805D00E03020D4E90121FA
:101A80009047206A401C2062761CAAF101005FEAA0
:101A9000000A0AD1FFF7AEFDC0680168405CD4E9D6
:101AA00001219047206A401C2062281EA5F10105F3
:101AB000DCDC07E0D4E9012118F8010B9047206A2B
:101AC000401C2062381EA7F10107F3DC2046FEF718
:101AD0003BFE032011B041E62DE9F04F04460D46D0
:101AE000D21D22F0070089B0D0E900974846394658
:101AF00028F015F80246F80F01D02D2307E02068E2
:101B0000810701D52B2302E0202101EAC0038DF8D3
:101B100020300BB1012000E00020032A824601D0D2
:101B2000072A04DB2946204600F082FA3FE12078AC
:101B3000800601D40D2500E0E569C7F30A560D2D96
:101B400049DA00214FEA175B08464FF00000002FEA
:101B500000F4400007DA00EB80004FF4400100EB96
:101B6000D07001EA60008115012901DD4FF0FF31DD
:101B700000224FEA850CBCF1180F06D31346ACF1D6
:101B800018004FF08052C24003E04FF4801323FA54
:101B90000CF30CF10C0CBCF1200F04D3ACF1200CB5
:101BA00009FA0CF001E007FA0CF000294FF00048A8
:101BB00001DD18B90FE00ED140450CD319EB020935
:101BC0005F4121B9404502D19F4329EA0209BBEB9D
:101BD000175F00D0761C2088000502D57B4878442A
:101BE00002E07A487844193808AA302302F80A300B
:101BF000037C0AF10101002E0AF1020A53546A46DD
:101C000002DC4FF0300101E04FF031014FF00108EC
:101C10008DF8001002D0A6F2FF3603E059EA470122
:101C200000D06B4E002D02DC2178090704D54FF05F
:101C300002082E218DF80110C44600210BE0C7F3E5
:101C400003433F01C35C491C6D1E02F8083005299F
:101C500008F1010801DA002DF1DC00210CE000EBB5
:101C60001973491C1B786D1E082902F808304FEAC9
:101C7000091908F1010801DA002DF0DC21688B0652
:101C800002D516E0A8F10108E04505DD02EB0803E6
:101C900013F8013C302BF5D0B8F1000F09DD02EB51
:101CA000080313F8013C2E2B03D1090701D4A8F136
:101CB0000108002D05DD3E2102F808106D1E08F117
:101CC0000108407C002E02F8080008F1010804DA3F
:101CD0002D20764202F8080002E02B2002F80800CE
:101CE0000A214FF47A70864208F101080BDB96FB5B
:101CF000F0F3303302F8083096FBF0F308F10108F6
:101D000000FB136601E0642E0CDB642096FBF0F30D
:101D1000303302F8083096FBF0F308F1010800FBBD
:101D2000136601E00A2E06DB96FBF1F0303002F874
:101D3000080008F1010896FBF1F001FB106030305B
:101D400002F80800A16908F1010808EB050202EB9E
:101D50000A00081AA0612078C00602D42046FEF7C7
:101D6000DDFC216A08AE01EB0A00206204E0D4E940
:101D7000012116F8010B9047BAF1010AF7D2207839
:101D8000C00602D52046FEF7C9FC6E4609E016F8EB
:101D9000010B3E280FD0D4E901219047206A401C56
:101DA0002062B8F10108F2D22046FEF7CDFC09B05E
:101DB0000320BDE8F08F206A2844206203E0D4E9C4
:101DC0000121302090476D1EEBD3F8E709C70700CB
:101DD00002FCFFFF10B5436913B1AFF3008001E0CF
:101DE000FFF736FA012010BD128800F12401828429
:101DF0000022C2840122EDE711684FF0FF32E9E7CB
:101E0000007B00F08000704770B5C468A50713D050
:101E1000650211D4B2F5807F09D0B2F5007F06D0FB
:101E2000B2F5806F08D1012300F1240106E05D1EA8
:101E30006FF07F46B54201D3012070BD0161C361DF
:101E4000416024F470611143C160002070BD000046
:101E50002DE9F0410C4607461646104600F06EF894
:101E60002078611C61280AD0722802D077283CD1E2
:101E700002E00125002405E00225042402E00824F4
:101E800048F2020511F8010B2B2806D0622809D070
:101E900011F8010C74280AD00BE045F0030544F05A
:101EA0000204EFE745F0040544F00104EAE744F0DA
:101EB0001004384621462AF069FB411C15D0002148
:101EC000316171604FF40071F560F161706120075C
:101ED00004D530460222002100F048FA306D40F06F
:101EE000010030653046BDE8F0810020FBE72DE9B8
:101EF000F0410D460646104C206DC10704D0410844
:101F000004D020F00104F7E722460EE05420FEF74B
:101F10008DFA07000ED0206D47F0010108435421CF
:101F200020653846FEF7C7FF3A4629463046BDE8E9
:101F3000F0418DE70020D6E7CCA401202DE9F04741
:101F400004464FF000094FF0FF37C568D4E9048616
:101F5000A80707D0204600F0B9FA30462AF0F8FA70
:101F6000002802DA3846BDE8F087280502D5404649
:101F7000FEF78BFA4C212046FEF79DFF206D20F0E6
:101F8000010020654846EEE770B516460C4605464A
:101F9000FFF728F8036893F80101012806D0FF2C09
:101FA0000FD8185D68B101202C7070BDD3F80701FF
:101FB0003246214603F2071303442846BDE8704029
:101FC00018474FF0FF3070BD10B500F0D1FABDE8F2
:101FD000104000F0C8BA10B500F0E4FABDE81040B7
:101FE00000F0C1BA70477546FFF700FBAE4605002A
:101FF0006946534620F00700854618B020B5FEF725
:1020000003FABDE820404FF000064FF000074FF004
:1020100000084FF0000B21F00701AC46ACE8C00906
:10202000ACE8C009ACE8C009ACE8C0098D4670470F
:102030002DE9F0411F46044603260168072A01F4F2
:10204000006004DB08B116A505E016A503E008B1A1
:1020500015A500E015A521F010002060A069C01EA4
:10206000A0610FB1401EA0612046FEF757FB4FB1A3
:10207000D4E9012138469047206A401C2062C01CE8
:10208000206206E0206AFAE7D4E9012115F8010B85
:102090009047761EF8D22046FEF756FBBDE8F08149
:1020A0004E414E006E616E00494E4600696E6600FC
:1020B0002DE9F047814616468AB0354878440DC868
:1020C0008DE80D0032487844801C03AC0DC884E8CC
:1020D0000D0041F69B300844372190FBF1F290FB54
:1020E000F1F5A5F1800501FB12041B3C02D5644209
:1020F000012000E00020DFF898A080460027FA4485
:10210000AAF1BE0A0EE0E0070AD03246684607EBA5
:10211000470101230AEB810100F044FD8DE807002F
:1021200064107F1C002CEED1194F7F44AE3F19E0A4
:10213000E80715D007EB04100DF1180A90E80E001F
:102140008AE80E00C068F04201D198190890324622
:10215000012306A903A800F025FD03AB83E80700CF
:102160006D10641C002DE3D14FF001033246694627
:10217000B8F1000F03A802D000F0FFFC01E000F06E
:1021800011FDC9E90001C9F808200AB0BDE8F087CF
:10219000BCC207002DE9F04705460C46C86820F48C
:1021A000201040F48000C860800602D5084600F088
:1021B000B0F9E06841F282014FF0FF390140022995
:1021C00003D0204600F04EF9B5E000F42041B1F50F
:1021D000004F0FD1C00306D56168E06A884200D87D
:1021E0000846606006E02069E062606060692AF08D
:1021F000BBF9A061A0680022EEB200280DDAE16808
:102200008B050AD4C043A06041F490302260E060A6
:102210006068411C61600670A5E0E068904622603D
:1022200040F40050E060206968BB60692AF0A2F9C0
:10223000012704F12405A0B1A08910F4407F08D043
:10224000E069FEF7F3F8206118B1E06840F400603F
:1022500016E0E7612561E06820F4407040F480609A
:102260000EE0E069FEF7E2F800282061F1D0E068B6
:1022700040F4006010F4407FE06002D140F48070D0
:10228000E06020696060E06825696FF0010AC105BF
:102290001FD56168E06A884200D80846411B04D017
:1022A0002246284600F0E8F8F0BBE068010203D5BA
:1022B000E562C4E9015854E0691CE1626160E169CA
:1022C00040F48030491EC4E9021030462E70BDE84B
:1022D000F087010202D500F480320AE06068411CF8
:1022E00061600670E0680A2E40F48030E06006D03D
:1022F0000022E16A6068814203D90B4602E00122B4
:10230000F7E70346A7895B1B7F0503D4E7699F4274
:1023100000DDE2B1814200D80146E5620F1AC4E94E
:102320000158002B09DD00E005E022461946284649
:1023300000F0A2F808B14846C9E747B1A069E562D4
:102340006560C01BA061E06840F01000E060E068DC
:10235000000208D56168A069E562491B0844656010
:10236000A0615046B3E73046B1E700002DE9F041E7
:10237000044616460D464769007B80072ED0384636
:102380002AF0F8F850BB3EB3012E02D0022E25D120
:1023900004E0204600F034F905441DE038462AF0F8
:1023A000E3F8E168002841F01001E16005DA204619
:1023B00000F058F80120BDE8F081C9030BD5626830
:1023C000E16A914200D81146A26911442269891A32
:1023D000814200DD08460544002D01DA0220EAE7CB
:1023E000E16A6068E268814206D29103E06203D547
:1023F00022F4003141F01002A6690027AE4213DC3E
:10240000E16A814201D90B4600E0034603EB060C6A
:102410002369ACEB030CAC4506DD814201D98C4647
:1024200000E084469C4505D1A760276042F020006B
:10243000A5620DE0AD1BE669AE1B8142A66000D926
:102440000846C01A281A20605819606022F020003F
:1024500003490840E060002084F84870ABE70000C2
:10246000BFCFD7FFC16821F4001141F08001C160E6
:1024700000218160016070472DE9F04781461446D4
:102480000E464FF0FF383248D5685769054209D0EB
:102490003846A1692AF0A8F8002811DB2C48C0436F
:1024A0000540E5602B463246494638462AF09FF8FB
:1024B000A16920F00042B21A11440028A16103D0A2
:1024C0002046FFF7CFFF4046BDE8F08770B50446D1
:1024D0000569C06A6168884200D80846E16821F44D
:1024E0002011E160C90312D5A84208D02246411B41
:1024F0002846FFF7C1FF10B14FF0FF3070BD00203C
:10250000E562C4E90150E06820F48030E06000201A
:1025100070BD10B50446C06820F02000E060A16ADC
:10252000A06988420DD02046FFF7D0FFE06820F474
:10253000405040F01000E060A06AA0612069E062B5
:10254000606044F24001E0688843E06010BD000034
:102550001000020010B50446AFF300802046BDE82D
:102560001040FDF7D6BE002801D000F043B87047F8
:1025700010B5014602A000F064F8012010BD000073
:1025800053494752545245443A2052656469726532
:1025900063743A2063616E2774206F70656E3A2011
:1025A0000000000010B5012805D0002103A000F0B4
:1025B00048F8012010BD09A1F8E70000534947522F
:1025C000544D454D3A204F7574206F662068656103
:1025D00070206D656D6F7279000000003A204865CB
:1025E0006170206D656D6F727920636F72727570A6
:1025F0007465640001491820ABBEFEE726000200A6
:1026000010B50146C268900703D0900607D5886AC6
:102610000AE0FEF7F3FC01210160881E10BD8B6902
:10262000486818440B69C01A91F848301BB191F8FA
:102630004910401A10BD1103FCD50028FADD401ED8
:1026400010BD70B505460C460A2000E06D1C00F078
:1026500011F835B128780028F8D102E0641C00F0A8
:1026600009F814B120780028F8D1BDE870400A209C
:10267000AFF3008008B569468DF800000320ABBEBB
:1026800008BD5FEA400C08BF91F0000F4FEA8C23B1
:102690004FEAC12243EA51514FEA1C5018BF00F5DE
:1026A000F0404FEA300018BF41F000415FEA6C5C37
:1026B00000F02980BCF1FF3F08BF40F08040704728
:1026C000130C06BF12044FF0100C4FF0000C130E49
:1026D00004BF12020CF1080C130F04BF12010CF11D
:1026E000040C930F04BF92000CF1020CD30F04BF33
:1026F00052000CF1010C11464FF00002A0F11F0036
:10270000A0EB0C00704711F0004F08BF704731F08C
:1027100000413FF4D5AF0B0C06BF09044FF0100C7D
:102720004FF0000C0B0E04BF09020CF1080C0B0F4C
:1027300004BF09010CF1040C8B0F04BF89000CF1DC
:10274000020CCB0F04BF49000CF1010CCCF12003AB
:10275000A0EB0C0022FA03F302FA0CF241EA0301A7
:1027600000F10100704720F07F4C80EA030023F065
:102770007F47ACEB070303F57C5300F0004003F107
:10278000FF032DE980494FEA154B09B44FEA144382
:1027900025EA0B4E24EA03480FF2042606EB132722
:1027A00049083E785FEA320203FB0667C7F5000777
:1027B00007FB06F64FEA54374FEAD64606F1020603
:1027C00007FB066CCCF1005C4FEA1C472CEA074C77
:1027D00007FB06F40CFB06F504EB15464FEA9616CC
:1027E00034BF00204FF000404FEAD13706FB07FC12
:1027F0004FEA1C4C0CFB0BF7D21B03FB0CF761EBF5
:1028000007010CFB0EF7B0EB074072EB17420CFB15
:1028100008F734BFA2EB0742B2EB074261EB174166
:102820004FEA0C444FEA910706FB07FC4FEA1C4CA9
:102830000CFB0BF7B0EBC74072EB573203FB0CF706
:1028400034BFA2EBC742B2EBC74261EB57310CFB7E
:102850000EF7B0EBC70072EB57720CFB08F734BFF2
:10286000A2EBC702B2EBC70261EB5771039F4FEABD
:10287000816141EA921104EBCC044FEAD1374FEA6F
:10288000826206FB07FC42EA90124FEA80604FEA40
:102890001C4C0CFB0BF7D21B03FB0CF761EB070185
:1028A0000CFB0EF7B0EB074072EB17420CFB08F77E
:1028B00034BFA2EB0742B2EB074261EB17414FEA8C
:1028C0008C554FEA910704EB9C2406FB07FC4FEA6A
:1028D0001C4C0CFB0BF7B0EBC74072EB573203FB01
:1028E0000CF734BFA2EBC742B2EBC74261EB5731E2
:1028F0000CFB0EF7B0EBC70072EB57720CFB08F73E
:1029000034BFA2EBC702B2EBC70261EB577115EB04
:102910004C254FEA816141EA92114FEA82624FEA07
:10292000D13742EA901206FB07FC44F100044FEA5B
:1029300080604FEA1C4C0CFB0BF7D21B03FB0CF71F
:1029400061EB07010CFB0EF7B0EB074072EB17428F
:102950000CFB08F734BFA2EB0742B2EB074261EB76
:10296000174115EB1C154FEA813141EA92414FEABC
:10297000823242EA90424FEA80304FEA0C7644F1CC
:10298000000448EA03434EEA0B484FF0000EB2EB56
:10299000080C71EB030724BF624639464EEB0E0E5E
:1029A0004FF0000B0018524149414BEB0B0BB2EBBF
:1029B000080C71EB03077BF1000B24BF624639461C
:1029C0004EEB0E0E4FF0000B0018524149414BEBFD
:1029D0000B0BB2EB080C71EB03077BF1000B24BF70
:1029E000624639464EEB0E0E51EA020718BF46F01A
:1029F000010616EB0E7655F1000254F1000103D5E5
:102A0000BDE88901BDE80088BDE88901BDE800484E
:102A1000B619524141EB0101A3F1010370478080D7
:102A20007F7E7D7C7B7A7978777676757473727128
:102A300071706F6E6E6D6C6C6B6A6A6968686766E0
:102A400066656464636362616160605F5F5E5E5D72
:102A50005D5C5C5B5B5A5A595958585757565655E6
:102A600055555454535352525251515050504F4F48
:102A70004F4E4E4D4D4D4C4C4C4B4B4B4A4A4A4998
:102A800049494848484747474746464645454544DB
:102A90004444444343434342424242414141002B68
:102AA0009C4630D477002BD01CB54FEA370703B4CF
:102AB0004FF010004FF01001BAF1000F06D0BCF13A
:102AC000000FDCBF40F0080040F008014FF00000AC
:102AD0000FBCBDE810400BF1010BBBF1010F08BFAB
:102AE0005FEA170722BF12F1010211F101014FF055
:102AF000004143F1000300F0004043EA000070474A
:102B0000F9D35708D0E746EA064613F1400F4FEADB
:102B100016461FDD13F1200FDFBF16430A460021C2
:102B200020335B42BED0C3F1200746EA064602FAD4
:102B300007F74FEA164646EA0706C3F1200722FACE
:102B400003F201FA07F721FA03F14FF0000342EA1A
:102B50000702A7E746EA020646EA06464FEA164695
:102B600046EA0106BCBF46EA0646360C4FF00003B3
:102B70004FF000024FF0000194E72DE9804C9A4697
:102B8000934670B491E8380007C831EA400C48BF5A
:102B900034EA430C03D5FFF7E6FDFFF780FFF0BCF6
:102BA000BDE8008C2DE9804C9A46934670B491E8BC
:102BB000380007C810F0804F08BF13F0804F03D1D2
:102BC00000F005F8FFF76BFFF0BCBDE8008C20F0CB
:102BD0007F4780EA030023F07F4C07EB0C03A3F54B
:102BE0007C5300F00040A3F1FE0392F0000F00F0D0
:102BF000B38095F0000F00F077802DE901494FEA8E
:102C000011404FEA144621EA004800FB06FC24EA82
:102C1000064708FB06F607FB08F800FB07F718EB6A
:102C200006484CEB164C4FEA124B18EB07484FEA9C
:102C300015464CEB174022EA0B4E0BFB06FC25EA2F
:102C400006470EFB06F607FB0EFE0BFB07F71EEB17
:102C5000064E4CEB164C4FF000061EEB074E4CEBAD
:102C6000174B18EB0B0840F1000018EB0E0B58EB5C
:102C7000000840F100008F1A4FF000013CBFC9432B
:102C8000661B14BFB5EB040C00213CBFC943F61B07
:102C90004FEA17444EEA8E0E27EA04454FEA1C47D6
:102CA00004FB07622CEA074C05FB07F70CFB05F653
:102CB00004FB0CFC16EB074642EB174216EB0C46E6
:102CC00042EB1C421BEB060658EB0202414146EA6E
:102CD0009E0601D5BDE80189B619524141EB0101BB
:102CE000A3F10103BDE801894FEA14454FEA1147FA
:102CF00024EA054621EA074C05FB07F406FB07F723
:102D00000CFB06F105FB0CFC11EB074144EB1744EF
:102D10004FEA124711EB0C4144EB1C4422EA074CEA
:102D200005FB07F206FB07F70CFB06F605FB0CFCA0
:102D300016EB074642EB174216EB0C4642EB1C45DE
:102D40006A1854F1000148BF7047B619524141EB6F
:102D50000101A3F10103704795F0000F37D04FEA4E
:102D600011424FEA144721EA024624EA074C02FBCB
:102D700007F106FB07F70CFB06F402FB0CFC14EB57
:102D8000074441EB17414FEA154714EB0C4441EB64
:102D90001C4125EA074C02FB07F506FB07F70CFB75
:102DA00006F602FB0CFC16EB074645EB174516EB47
:102DB0000C4645EB1C42121951F1000148BF704707
:102DC000B619524141EB0101A3F1010370474FEAEB
:102DD00014454FEA114724EA054621EA074C05FB52
:102DE00007F106FB07F70CFB06F24FF0000605FBA8
:102DF0000CFC12EB074241EB174112EB0C4251EB7A
:102E00001C4148BF7047921841EB0101A3F1010337
:102E100070472DE9FF4F99B01C461546DDE9263273
:102E20001998DDE928BA270900F5927004F00F0817
:102E30000E464FF0100917900C2A21D009A9CDE9B0
:102E400000210022CDF80890114617980CF0BAFB2B
:102E50000DA9CDE90041CDF80890DDE92A122B46F5
:102E600017980CF0AFFB11AA09A9199848F04CFA71
:102E7000040051D1102211A90DA851F0F9FD1EE056
:102E8000194609A8FDF7ECFE0020ADF830008DF8DA
:102E9000320001208DF83300DAE709A811F0A3FB16
:102EA00005AA09A9199848F02FFA040034D1102373
:102EB0002A4605A9304651F02FFE103510367F1EE8
:102EC000EBD2B8F1000F13D009A811F08CFB05AAC2
:102ED00009A9199848F018FA04001DD1424629465C
:102EE00005A851F0C5FD424605A93046FDF7B8FEDC
:102EF00000205B460DAE5246014604E05D5C775C07
:102F00007D402843491C9142F8DB4042C11724EA26
:102F1000010021F0B30108431DB0BDE8F08F2DE999
:102F2000FF4F95B08B46DDE922109046159A00249C
:102F30001E0902F59272DDF890A01F4603F00F09FA
:102F40005D460E920C2813D005ABCDE9000310228C
:102F500002920B46002211460E980CF033FB0DF145
:102F6000140C9CE80F000DF1400C8CE80F001FE0E2
:102F7000024605A8FDF774FE0020ADF820008DF88C
:102F8000220001208DF82300E9E705A811F02BFBB2
:102F90000AAA05A9159848F0B7F9040037D11023FB
:102FA00042460AA9284651F0B7FD08F1100810352D
:102FB000761EEAD2B9F1000F0FD005A811F013FB6D
:102FC0000AAA05A9159848F09FF904001FD14B469D
:102FD00042460AA9284651F09FFDBAF1000F15D0CC
:102FE00025980097CDE901A0DDE926125B460E98F1
:102FF0000CF0E8FA0AAA10A9159848F085F904001F
:1030000005D10AA95046259A51F032FD204619B043
:10301000BDE8F08F2DE9FF5F054601989A4691467D
:10302000D0F80080002777A024F0A6FE75B34FF4F7
:103030005F703BF013FA060030D0EB6A3046D8F8E8
:103040000820D8F8001011F0F3FA2B46524606215A
:10305000304614F049FF04466DA024F08DFE06F5BD
:10306000357BBAF1000F0FD0F1696D48B1F5807F63
:1030700034D0A1F50071063923D07F2914D08829D6
:1030800012D068A024F078FE9CB399E001980CF06F
:1030900063F86FF0AC0004B0BDE8F09F01980CF04D
:1030A0005BF86FF07C00F6E7B5F96200002804DBFE
:1030B000B5F8621070688842E6D26FF4CC7461A0F3
:1030C00009E0B5F96410002910DBB5F864207168D7
:1030D00091420BD3D8E724F04FFE71E0B5F96410AC
:1030E000002903DBB5F864102029CDD904465BA084
:1030F000F1E7FFE796F878036FF4B27AC00607D4D9
:10310000B9F1010F17D0B9F1030F14D059A00EE097
:10311000B9F1010F0FD0B9F1030F0CD096F87A0373
:10312000800708D496F80803400704D45BA024F075
:1031300023FE544644E05946284601F0C1FB08B13D
:1031400061A0C8E7E86A12F009FA07000CD043460C
:103150004A4631460BF01AFE044607F1340010F0DF
:1031600088FF82461CB108E06FF4977428E005F1EF
:103170005C00834649F02FFD58B15DA024F0FCFDB2
:103180006FF0690460A024F0F7FD30460BF0ABFF50
:103190001EE055F82A00F86445F82A7058464BF0AE
:1031A0001EFD6B6C63B14A46D8F80810D8F80000D1
:1031B000984755A024F0E0FD30460BF094FF0BE05B
:1031C00051A024F0D9FD30460BF08DFF24B11FB182
:1031D0003846E96A0CF0B1F9304647F0D9FC4FA007
:1031E00024F0CAFD01980BF0B7FF50A024F0C4FDF5
:1031F000214653A024F094FD0CB120464BE701205A
:1032000049E70000416464696E6720612043410022
:1032100009506172736564206E6577204341000038
:1032200066FEFFFF094E6F206B65792073697A6532
:1032300020636865636B20646F6E65206F6E20434A
:103240004100000009434120525341206B65792021
:1032500073697A65206572726F72000009434120BC
:10326000454343206B65792073697A6520657272E6
:103270006F7200000943616E2774206164642061ED
:1032800073204341206966206E6F742061637475FA
:10329000616C6C79206F6E650000000009446F65F9
:1032A000736E27742068617665206B65792075736D
:1032B000616765206365727469666963617465201E
:1032C0007369676E696E670009416C726561647944
:1032D000206861766520746869732043412C206EF4
:1032E0006F7420616464696E6720616761696E0054
:1032F000094341204D75746578204C6F636B2066DF
:1033000061696C65640000000946726565696E67F5
:103310002050617273656420434100000946726564
:1033200065696E67206465722043410009094F4B4F
:103330002046726565696E672064657220434100AE
:1033400041646443410000002DE9F05F83460AA810
:10335000002490E8C002951B9A469046BD4200D9D1
:103360003D4646450AD231442A464846FDF778FC98
:103370002C46BD4202D12846BDE8F09F08EB0A006A
:10338000801B051BBAF1020F15D00D990BEB8100C4
:103390003119D0F8780100680144381BA1EB08010D
:1033A000A84200D2054609EB04002A46FDF758FC66
:1033B0002C442046E0E7BD42FBD8002009F8040079
:1033C000641C09F80400641CF3E70A46009900280D
:1033D00004D00170411C104629F0E4BA70472DE971
:1033E000FC410546002016460C4600901F46091D6C
:1033F0001622284600F00AF82346681D00221946C6
:10340000CDE90067FFF7E1FFBDE8FC8138B50D4667
:1034100004001AD0227093F8CA016070B3F8CA0190
:10342000ADF80000009811F0F2FE08B1032001E0B1
:1034300093F8CB01A07093F80203800705D4A8B2DB
:10344000E11CBDE8384029F08FBA38BD30B5441CC6
:10345000039B092A1D8806D0082A0ED048B1415581
:103460001888025505E020B1082141551988072028
:1034700008551888801C188030BD002802D042559D
:103480001D8829551D8805F10205ADB21D80F0D0BB
:103490004255188801F105010155EAE70A460099ED
:1034A0000170411C104629F083BA2DE9FC411646F3
:1034B0000C461F460546091D162200F00AF8234651
:1034C000681D00221946CDE90067FFF7E7FFBDE858
:1034D000FC8130B40446027093F8CA016070032086
:1034E000A07088B2E11C30BC29F046BA2DE9F04F3B
:1034F0009E460B684C6893461DBA8A6823BA466894
:10350000C9685E4004688368C76812BA09BA6C402B
:1035100083EA020A4F400022DFF8A09C13460021F4
:1035200009EB832555F821C008310CEA0202FF2976
:10353000F8DD5B1C042BF2DB2243C6F30744130EB9
:1035400009EB840459F82330D4F80044FDB26340F9
:10355000CAF3072409EB840409EB8505D4F8004875
:10356000D5F8005C49466C40634050F8104FCAF3F0
:1035700007456340340E01EB850551F82440D5F82A
:10358000005402F0FF0C6C40C7F3072501EB8505E2
:1035900001EB8C0CD5F80058DCF800CC06F0FF08E5
:1035A00085EA0C056C404568C7F3074C6C404FEA50
:1035B0001A6501EB8C0C51F82550DCF800C43F0E65
:1035C00085EA0C05C2F3072CC2F3074201EB820225
:1035D00051F82770D2F8002401EB8C0C5740C6F349
:1035E00007220AF0FF0601EB820201EB8606D2F801
:1035F0000028D6F8006C01EB880872405740C2687A
:10360000DCF800C8D8F8008C5740C4F307468CEAB1
:10361000080C1A0E01EB860685EA0C05D0F808C0E6
:1036200051F82220D6F8006485EA0C057240C5F3F3
:10363000072601EB8606D6F8006807F0FF0C01EBC1
:103640008C0C03F0FF08DCF800CC01EB880886EA5C
:103650000C0672400669C5F3074C7240260E01EB5A
:103660008C0C51F82660DCF800C4D8F8008C86EA8F
:103670000C06C7F3072C01EB8C0CDCF800C88CEAB5
:10368000080C86EA0C06D0F814C004F0FF0886EA9D
:103690000C0A2E0E01EB880851F826C0C7F3074626
:1036A00001EB8606D8F8008CD6F800648CEA060C8C
:1036B000C3F3072601EB8606C3F30743D6F8006879
:1036C00001EB830386EA08068CEA060C8669D3F8C8
:1036D00000348CEA060C3E0E51F826705F40C4F3AD
:1036E0000723ECB201EB830301EB8404D3F8003829
:1036F000D4F8004C63405F40C369CAF307445F409D
:10370000130E01EB840451F82330D4F80044FDB2C9
:103710006340CCF3072401EB840401EB8505D4F866
:103720000048D5F8005C6C406340046ACCF3074560
:1037300063404FEA1A6401EB850551F82440D5F83F
:103740000054D6B26C40C7F3072501EB850501EBA9
:103750008606D5F80058D6F8006C75406C40456A6E
:103760000AF0FF066C404FEA1C6501EB860651F833
:103770002580C7F3074501EB8505D6F8006CD5F821
:10378000005488EA0508C2F3072501EB8505C2F35A
:103790000742D5F8005801EB8202754088EA050817
:1037A000856AD2F8002488EA05083D0E0CF0FF0671
:1037B00051F8255001EB86065540CAF3072201EB6C
:1037C0008202D6F8006CD2F8002803F0FF0C724099
:1037D0005540C26AC4F3074655401A0E01EB8606EF
:1037E00051F82220D6F80064EFB27240C8F30726E1
:1037F00001EB860601EB8707D6F80068D7F8007C56
:1038000001EB8C0C7E407240066BDCF800CC724001
:10381000260E51F82670C8F3074601EB8606D6F847
:1038200000647740C5F3072601EB8606D6F80068EA
:1038300086EA0C067740466B04F0FF0C87EA060A1E
:10384000C5F307474FEA186601EB870751F8266072
:10385000D7F800742D0E7E40C3F30727C3F3074348
:1038600001EB830351F82550D3F8003401EB8707AF
:103870005D40C4F3072308F0FF0401EB830301EB71
:103880008404D3F80038D4F8004C01EB8C0C63406E
:10389000D7F80078DCF800CC5D40C36B87EA0C07F2
:1038A0007E405D40CAF30744876B130E01EB84042E
:1038B0007E4051F82330D4F80044EFB26340C6F3A1
:1038C000072401EB840401EB8707D4F80048D7F8FC
:1038D000007C02F0FF0C7C406340046CC6F3074799
:1038E00063404FEA1A6401EB870751F82440D7F888
:1038F000007401EB8C0C7C40C5F3072701EB8707B4
:10390000DCF800CCD7F8007887EA0C077C40476CDD
:103910007C40370E51F827C0C5F3074701EB8707F6
:10392000D7F800748CEA070CC2F3072701EB87076E
:10393000D7F800880AF0FF07C2F307422D0E01EB0B
:10394000820251F82550D2F80024F6B25540CAF34D
:10395000072201EB820201EB8606D2F80028D6F896
:10396000006C01EB870772405540C26CD7F8007CB1
:10397000554088EA07081A0E8CEA080C51F8228094
:10398000C4F3074201EB8202876CD2F800248CEA70
:10399000070C88EA0208CCF30722EEB201EB8202A0
:1039A00001EB8606D2F80028D6F8006CDFB2724030
:1039B00088EA0208026DCCF3074688EA020A220E62
:1039C00001EB860651F82220D6F8006401EB870748
:1039D0007240C5F3072601EB8606D7F8007CD6F8BF
:1039E000006804F0FF087E407240466DC5F307474B
:1039F00072404FEA1C6601EB870751F82660D7F842
:103A0000007401EB88087E40C3F3072701EB8707AA
:103A1000D8F8008CD7F80078C3F3074387EA080783
:103A20007E40876D01EB83037E402D0ED3F800347A
:103A300051F8255002F0FF085D40C4F307230CF055
:103A4000FF0401EB830301EB8404D3F80038D4F8BE
:103A5000004C0AF0FF0C63405D40C36DC2F30744A5
:103A60005D404FEA1A6301EB840451F82330D4F827
:103A70000044EFB26340C6F3072401EB840401EB7A
:103A80008707D4F80048D7F8007C01EB8C0C7C4009
:103A90006340046EC6F307476340140E01EB8707CB
:103AA00051F82440D7F80074DCF800CC7C40C5F312
:103AB000072701EB870701EB8808D7F80078D8F8CB
:103AC000008C87EA0C077C40476EC5F3074C7C40AE
:103AD000370E01EB8C0C51F82770DCF800C4C2F3F0
:103AE000072287EA0C07CAF3072C01EB8C0CF6B20D
:103AF000DCF800C82D0E8CEA080C87EA0C07D0F819
:103B000068C001EB820287EA0C07CAF3074C01EB9D
:103B10008C0C01EB860651F82550DCF800C4D2F875
:103B20000028D6F8006C85EA0C0572405540C26E3C
:103B30005540C4F307461A0E01EB860651F82220C1
:103B4000D6F8006405F0FF0C7240C7F3072601EBBE
:103B5000860601EB8C0CD6F80068DCF800CC03F08C
:103B6000FF0886EA0C067240066F01EB8808724077
:103B7000260ED8F8008C51F826C0C7F3074601EB93
:103B80008606D6F800648CEA060CC5F3072601EB1E
:103B90008606D6F8006886EA08068CEA060C466FA8
:103BA00004F0FF088CEA060AC5F3074C3E0E01EB51
:103BB0008C0C51F82660DCF800C42D0E86EA0C0649
:103BC000C3F3072CC3F3074301EB830351F82550DC
:103BD000D3F8003401EB8C0C5D40C4F30723FCB236
:103BE00001EB830301EB8404D3F80038D4F8004CD4
:103BF00001EB880863405D40C36FDCF800C8D8F86B
:103C0000008C5D40CAF307448CEA080C130E01EBEC
:103C1000840486EA0C06D0F878C051F82330D4F832
:103C2000004486EA0C066340C6F3072401EB8404D3
:103C3000EFB2D4F8004801EB870702F0FF0CD7F889
:103C4000007C01EB8C0C7C406340D0F88040C6F3D4
:103C5000074763404FEA1A6401EB870751F8244095
:103C6000D7F80074DCF800CC7C40C5F3072701EBE3
:103C70008707D7F8007887EA0C077C40D0F8847073
:103C8000C5F3074C7C40370E01EB8C0C51F82770C4
:103C9000DCF800C42D0E87EA0C07C2F3072C01EBF9
:103CA0008C0CC2F3074201EB8202DCF800880AF0B8
:103CB000FF0C51F82550D2F8002401EB8C0C554034
:103CC000CAF3072201EB8202F6B209EB8601DCF8A7
:103CD00000CCD2F80028D1F8001C88EA0C084A4031
:103CE000D0F888C0D0F88C10554087EA08074D40BE
:103CF000103887EA0C07BEF1050F7DD91A0EEEB217
:103D000059F822C0C4F3074209EB820209EB860688
:103D1000D2F80024D6F8006C8CEA020CC7F3072214
:103D200009EB82024946D2F8002804F0FF087240ED
:103D30008CEA020CD0F8A020C7F307468CEA020AEE
:103D4000220E01EB860651F82220D6F8006403F01B
:103D5000FF0C7240C5F3072601EB860601EB8C0CC5
:103D6000D6F80068DCF800CC01EB880886EA0C067F
:103D70007240D0F8A460C5F3074C72403E0E01EBD0
:103D80008C0C51F82660DCF800C42D0E86EA0C0677
:103D9000C3F3072CC3F3074301EB830351F825500A
:103DA000D3F8003401EB8C0C5D40C4F30723FCB264
:103DB00001EB830301EB8404D3F80038D4F8004C02
:103DC000DCF800C86340D8F8008C5D40D0F8AC3017
:103DD0008CEA080C86EA0C065D40C2F30744D0F872
:103DE000A8C04FEA1A6301EB840486EA0C0651F876
:103DF0002330D4F8004400E0E8E06340C6F3072431
:103E0000EFB201EB840401EB8707D4F80048D7F840
:103E1000007C0AF0FF0C7C406340D0F8B040C6F351
:103E200007476340140E01EB870751F82440D7F889
:103E3000007401EB8C0C7C40C5F3072701EB87076E
:103E4000DCF800CCD7F8007802F0FF0887EA0C070E
:103E50007C40D0F8B470C5F3074C7C40370E01EBC2
:103E60008C0C51F82770DCF800C401EB880887EA55
:103E70000C07CAF3072C01EB8C0CD8F8008CDCF88B
:103E800000C8C2F307228CEA080C87EA0C07D0F8B6
:103E9000B8C0F6B287EA0C07CAF3074C2D0E01EB47
:103EA0008C0C01EB820201EB860651F82550DCF800
:103EB00000C4D2F80028D6F8006C85EA0C057240E0
:103EC0005540D0F8BC205540BEF1060F7ED9C4F352
:103ED00007461A0E01EB860651F82220D6F8006438
:103EE00005F0FF0C7240C7F3072601EB860601EBD5
:103EF0008C0CD6F80068DCF800CC03F0FF0886EAEA
:103F00000C067240D0F8C060C7F3074C7240260E12
:103F100001EB8C0C51F82660DCF800C401EB88083A
:103F200086EA0C06C5F3072C01EB8C0CD8F8008C44
:103F3000DCF800C88CEA080C86EA0C06D0F8C4C08D
:103F400004F0FF0886EA0C0A3E0E01EB880851F8DF
:103F500026C0C5F3074601EB86062D0ED6F8006491
:103F600051F825508CEA060CC3F30726C3F3074328
:103F700001EB830301EB8606D3F80034D6F8006822
:103F80005D40C4F30723FCB201EB830301EB84041F
:103F9000D3F80038D4F8004CD8F8008C63405D406A
:103FA000D0F8CC30CAF307445D4086EA0806130E09
:103FB00001EB84048CEA060CD0F8C86051F8233079
:103FC000D4F800448CEA060C634000E063E0CCF3D4
:103FD0000724EEB201EB840401EB8606D4F8004816
:103FE000D6F8006CD7B274406340D0F8D040CCF320
:103FF000074663404FEA1A6401EB860651F82440F5
:10400000D6F8006401EB87077440C5F3072601EB7F
:104010008606D7F8007CD6F800687E407440D0F859
:10402000D46074404FEA1C6651F82670C5F3074609
:1040300001EB86062D0ED6F8006451F82550774026
:10404000C2F3072601EB8606C2F30742D6F80088C2
:104050000AF0FF0601EB860601EB8202D6F8006C3F
:10406000D2F8002488EA0608D0F8D860554087EADC
:104070000807CAF30722774001EB82020CF0FF0623
:1040800009EB8601D2F80028D1F8001C4A40D0F88C
:10409000DC1055404D4000EB4E16180EC4F307419E
:1040A00009EB800009EB8101D0F80008D1F8001C71
:1040B00000F07F4001F47F014840C7F30721C7F3B8
:1040C000074239F8211009EB820201F47F41484090
:1040D000E9B209EB8101D2F8002C91F8001402F446
:1040E0007F0248403168C5F3074C4840210E09EB78
:1040F000810109EB8C0CD1F80018DCF800CC01F040
:104100007F415140C5F307220CF47F0C39F822207F
:1041100002F47F425140DAB209EB820292F80024A5
:104120005140726851403A0E09EB82022D0ED2F8CE
:10413000002809EB850502F07F4282EA0C02C3F3F6
:10414000072CC3F3074309EB8303D5F80058D3F8D2
:10415000003C05F07F4503F47F0339F82CC05D4037
:10416000C4F307230CF47F4C82EA0C0239F82330A5
:1041700004F0FF0C09EB8C0C03F47F435D409CF8CA
:1041800000C4FBB209EB830382EA0C02D6F808C034
:1041900093F8003482EA0C025D40F3685D4003BA94
:1041A00008BA11BACBF80030CBF804002ABACBF821
:1041B0000810CBF80C20BDE8F08F0000FCAA07081F
:1041C0002DE9F84399469046054604460026FCF73B
:1041D00047FD21464246084602F063F9DFF878C3FE
:1041E000B8F1100F0CF1280706D0B8F1180F35D030
:1041F000B8F1200F7DD169E0E0680090C0F307427C
:1042000007EB82022168D2F80028C3B202F07F4295
:104210005140C0F3072207EB820237F82330D2F86F
:10422000002C03F47F4302F47F025A405140020EF7
:1042300007EB820292F8002451405CF82620761C9D
:104240005140216162684A406261A1685140484022
:10425000C4E906100A2E4CD01034CDE760690090F6
:10426000C0F3074207EB82022168D2F80028C3B2EC
:1042700002F07F425140C0F3072207EB820237F879
:104280002330D2F8002C03F47F4302F47F025A401B
:104290005140020E07EB820292F8002451405CF874
:1042A0002620761C5140A16162684A40E261A36801
:1042B00053402362E16859406162082E65D022694B
:1042C0004A405040C4E90A201834C7E7E06900902A
:1042D000C0F3074207EB82022168D2F8002802F0FF
:1042E0007F425140C0F3072207EB8202D2F8002C34
:1042F00000E04AE0C3B202F47F0237F8233003F44F
:104300007F435A405140020E07EB820292F800248C
:1043100051405CF82620761C5140216262684A4078
:104320006262A3685340A362E1685940E162072ECC
:104330002BD000910B0E07EB83032269D3F80038D2
:10434000C1F3072803F07F435A40C1F3074307EB4B
:10435000830337F82880D3F8003CC9B207EB81010A
:1043600003F47F0308F47F4883EA080391F80014FC
:104370005A404A402263616951406163A2694A40E0
:104380005040C4E90E202034A0E7042168460AF01A
:10439000BDFDB9F1010F7DD1D5F8F00000212C460B
:1043A000800021E054F82120009254F8202044F8A5
:1043B0002120009A44F8202004EB810253680093E6
:1043C00004EB8003001F5E685660009E5E60966886
:1043D00000969E689660009E9E60D6680096DE6895
:1043E000D660009A091DDA608142DBD30421684659
:1043F0000AF08CFD0121A8E054F8102F100E07EBF5
:104400008000C2F3074607EB860690F80034534855
:1044100096F8006400EB860650F82330D6F8006466
:104420007340C2F30726D2B207EB860607EB82027F
:1044300096F8006492F8002400EB860600EB8202F6
:10444000D6F80068D2F8002C5640734023606268AA
:10445000C2F30746130E07EB860607EB830396F8B5
:10446000006493F8003400EB860650F82330D6F849
:1044700000647340C2F3072607EB8606D2B296F8B3
:10448000006407EB820200EB860692F80024D6F85F
:10449000006800E05EE000EB8202D2F8002C56409B
:1044A00073406360A268C2F30746130E07EB8606EB
:1044B00007EB830396F8006493F8003400EB86065C
:1044C00050F82330D6F800647340C2F30726D2B206
:1044D00007EB860607EB820296F8006492F8002448
:1044E00000EB860600EB8202D6F80068D2F8002CBA
:1044F00056407340A360E268C2F30746130E07EB11
:10450000860607EB830396F8006493F8003400EB0B
:10451000860650F82330D6F800647340C2F30726AD
:1045200007EB8606D2B296F8006407EB820200EB36
:10453000860692F80024D6F8006800EB8200D0F8D6
:10454000000C46407340491CE360D5F8F0008842F7
:104550003FF652AFBDE8F883D4AA0708FCBA0708B3
:1045600010B52F2860D018DC29284BD00DDC162878
:104570003FD005DCA0B30A2835D014282BD135E074
:104580001E2839D0282826D139E02A38052822D2F9
:10459000DFE800F03B3E41444700502858D00EDC95
:1045A00033284CD006DC302841D0312842D0322884
:1045B00011D142E0462845D047280CD145E070286B
:1045C0004FD004DC5A2846D0642804D146E0712834
:1045D0004AD078284BD027A023F0CEFB002010BD76
:1045E000FFE72848FBE727480D30F8E7254820304B
:1045F000F5E724482F30F2E722483F30EFE7214823
:104600005530ECE71F486730E9E71E487630E6E7AB
:104610001C488630E3E71B489E30E0E71948B2307B
:10462000DDE71848C630DAE71648DA30D7E715482C
:10463000EC30D4E71348F730D1E71348CFE71248FE
:104640000D30CCE710481B30C9E70F482C30C6E7C7
:104650000D484230C3E70C485130C0E70A485F308C
:10466000BDE709487030BAE707488230B7E7064827
:10467000A230B4E7556E6B6E6F776E20416C657239
:104680007400000004A8070809A907082DE9F041F3
:104690001C4616460F46054622463146069B00F04C
:1046A0000BF8040005D12868324639460068FCF74B
:1046B000D7FA2046BDE8F0812DE9F047070098467B
:1046C00016460D466FF0AC0023D00B2E29D005DC2A
:1046D0001EB3052E23D0062E06D11CE00C2E22D0B0
:1046E0000D2E22D02A2E18D05FF0030405F11400FD
:1046F000814639F0B3FE3860C8B14946FCF7DBFBB0
:104700003B6803F114009D60C3E90008C3E903643A
:104710000020BDE8F0870124E8E70224E6E716243C
:10472000E4E71524E2E72524E0E70A24DEE76FF05A
:104730007C00EEE72DE9F04116460F4604006FF0CD
:10474000AC054BD086B3306830B130A023F014FBF9
:104750006FF0BF00BDE8F081252F0DD004DC0A2FDB
:1047600007D00F2F3AD10EE0452F0AD0462F35D172
:1047700005E041F65C0008E04FF4446005E0682085
:1047800003E0542001E04FF4126039F067FE30601E
:1047900038B1252F15D008DC0A2F0BD00F2F1DD1D3
:1047A0002DE06FF07C00D5E718E0452F1FD0462F95
:1047B00014D115E0D4F8A423D4F8841048F06EF98D
:1047C00005E0D4F8A423D4F884104AF032FF0500A1
:1047D00004D03246394620460AF0B4FD2846B9E7EF
:1047E000D4F8A423D4F884104BF0ACFE05E0D4F840
:1047F000A423D4F884104AF0AFFA0025EEE7D4F8E9
:10480000A423D4F8841048F019F9E0E74B65792027
:10481000616C72656164792070726573656E742174
:104820000000000070B50546006C48B94FF4AC7448
:10483000204639F013FE286420B12146FCF719FB0D
:10484000002070BD02A023F097FA6FF4977070BD3E
:104850004D656D6F727920616C6C6F6320666F724D
:1048600020537569746573206661696C6564000026
:1048700070B504464068B8B94FF4AC75284639F0B5
:10488000EDFD606038B1216859B1096C49B12A4623
:10489000FCF7E6F908E005A023F06EFA6FF49770D4
:1048A00070BD2946FCF7E5FA002070BD53756974A8
:1048B0006573204D656D6F7279206572726F72003D
:1048C0002DE9F04104000E464FF000050AD04EB12C
:1048D00008460FF0CEFB074604F15C00804648F026
:1048E0007AF910B12846BDE8F08154F8274007E076
:1048F00004F1340114223046FCF71CF930B1E46CA9
:10490000002CF5D140464AF06AF9EBE70125F9E7BA
:1049100010B5102039F0A2FD002804D0002101605C
:1049200041608160C16010BD2B38C0B2C0F13F0151
:10493000C1F3C011491ECAB200F03F01054B00F09F
:104940000F0040F04000595C185C11409043084350
:104950007047000070D207082DE9FF4F85B0002492
:104960000698009400F13F01A0EB911000EB40008D
:10497000C01C196880081E46154627466FF0AC0813
:10498000814278D2404609B0BDE8F08F4FF0000B6D
:10499000DA466A4606A9059800F01AF918B110F12E
:1049A000840F69D0EFE705990098095C00F10100D8
:1049B0005FEA01090090F4D006986A46401E06900E
:1049C00006A9059800F004F90028DCD105990098A3
:1049D0006A46095C401C009006980491401E0690AF
:1049E00006A9059800F0F4F80028CCD105990098A4
:1049F0006A46095C401CCDE90001069806A9401EE4
:104A00000690059800F0E4F80028BCD105990098BC
:104A1000095C401C009006980291401E0690019887
:104A20003D2801D14FF0010B3D2901D14FF0010A82
:104A3000BBF1000F02D0BAF1000F0CD0B9F12B0F6F
:104A400007D304982B2804D301982B2801D32B29B2
:104A500004D23CA05FE06FF0990094E7B9F17A0FBF
:104A600007D804987A2804D801987A2801D87A2996
:104A700003D93DA04FE058E05BE0BBF1000F0ED042
:104A800000200119BAF1000F0BD000200844316852
:104A9000401C884207D93CA023F06EF972E7012040
:104AA000EFE70120F2E74846FFF73EFF0390049846
:104AB000FFF73AFF814601983D2827D0FFF734FFE2
:104AC000019002983D2823D0FFF72EFF0399FF297C
:104AD00020D0B9F1FF0F1DD00199FF291AD0FF286E
:104AE00018D003998A0042EA19114FEA0972130E8D
:104AF000019A43EA9202019B295503F00303641CC7
:104B000040EA8310BBF1000F08D009E00020D7E78E
:104B10000020DBE726A023F02FF99CE72A55641C30
:104B2000BAF1000F05D12855641C069803283FF6FA
:104B30002DAF1DB13068A04200D92F550020346040
:104B400021E70000426164204261736536342044ED
:104B500065636F646520646174612C20746F6F20DD
:104B6000736D616C6C00000042616420426173658A
:104B70003634204465636F646520646174612C2061
:104B8000746F6F20626967004261642042617365DF
:104B90003634204465636F6465206F7574206275D8
:104BA000666665722C20746F6F20736D616C6C008B
:104BB00042616420426173653634204465636F64EA
:104BC000652062616420636861726163746572006C
:104BD00070B50B6814686FF0830663B3055D02E07F
:104BE000641C5B1E055D012B02D9202DF8D000E06E
:104BF0000BB30D2D08D00A2D06D0E3B1202D16D011
:104C00000B600020146070BD5B1E641C0D2D03D171
:104C100023B1055D5B1E641C0A2D05D007A023F09F
:104C2000ABF86FF0990070BD2BB1055DE6E75B1E38
:104C300001D0641CF9E7304670BD00004261642079
:104C4000656E64206F66206C696E6520696E204217
:104C50006173653634204465636F6465000000004D
:104C60002DE9F04FDDB04FF0000E00BFD0E900217C
:104C7000CDE90512D0E90A566A4036961695D0E974
:104C800014587140CDF844801E95D0E91E677540D8
:104C90006A4021972496D0E9285688EA070881EAD5
:104CA000080171406A404F91CDE912264095259147
:104CB000D0E9022104921B91D0E90C68CDF80C8058
:104CC0002896D0E916C5CDF838C0724081EA0801AF
:104CD0002795D0E920688CEA060C85EA080569402A
:104CE000CDF880800A96D0E92A5682EA0C026A4002
:104CF00081EA06030B9618951492D0E904163796AC
:104D00002691D0E90E27CDE91C275140D0E918287B
:104D100086EA0704CDF8D4803E92D0E9226772403B
:104D200088EA0708514084EA080415973C96D0E9C0
:104D30002C285140CDF87C802C923A91D0E9067213
:104D400010973192D0E9101584EA08044F402F954E
:104D50003891D0E91A166A402D961A91D0E9245C50
:104D6000694086EA0C064F407240CDF8ACC03495DD
:104D7000D0E92E1672404F405392239230972996D5
:104D80003291D0E908A8CDF808A0CDF86480D0E928
:104D9000121288EA020817922E91D0E91C260F966B
:104DA0002A92D0E92679CDE907978AEA010A7A4062
:104DB00086EA09068AEA020AD0E93029CDF8249069
:104DC0008AEA020A2292149A88EA060812EB020C76
:104DD00088EA090843EB0301CDF84481CDF834801B
:104DE00081EA080BDDE905124CEAD37C8CEA0A0C57
:104DF00082EA0C0281EA0B01C0E90021CDE905122B
:104E0000169E369D86EA0C0685EA0B05C0E90A6502
:104E100016951E9DDDF84480369685EA0C0588EAD5
:104E20000B08C0E91458249E219FCDF844801E959C
:104E300086EA0C0687EA0B07C0E91E672496409DA8
:104E4000139E219785EA0C0586EA0B06C0E92856D1
:104E50003A9942954F18129A259944EB040547EA6E
:104E6000D4771396574085EA0109049A1B997A4032
:104E700081EA0901C0E90221DDF8A080039E529277
:104E80001B9188EA070886EA0906C0E90C86CDE985
:104E90000368DDF838C0279D8CEA070C85EA090510
:104EA000C0E916C5CDF840C143950A9EDDF8808063
:104EB0007E4088EA0908C0E92068CDE92786189D68
:104EC0000B9E7D4086EA0906C0E92A564E95309F22
:104ED000239AFD1942EB0209539A209645EAD275AE
:104EE000149A2699379E554089EA0309694086EA53
:104EF0000906C0E904162696DDE91C724C916F4044
:104F000082EA0902C0E90E72CDE91C723E9ADDF810
:104F1000D4806A4088EA0908C0E91828CDE90A283F
:104F20003C9E159F6E4087EA0907C0E92267CDE9DC
:104F30001467DDF8B0801F9A88EA050882EA090242
:104F4000C0E92C82CDF8B080DDF834801F921AEBD6
:104F50000A0348EB0809DDF844813A9943EAD8731B
:104F6000109F319A4B4089EA04095F4082EA0902A6
:104F7000C0E906723E97389D2F9931925D4081EAD3
:104F80000901C0E9105141911A992D9E4A95594045
:104F900086EA0906C0E91A164891DDF8D0C02B9DB3
:104FA0001A968CEA030C85EA0905C0E924C5329EED
:104FB00029995E4081EA0901C0E92E61129A109197
:104FC0002599931841EB010B40964F99309F239AF6
:104FD00043EAD173DDF808A0DDF864807B408BEAFA
:104FE000020B8AEA030A88EA0B08C0E908A8CDF890
:104FF000CC802E9ACDF810A117995A4081EA0B0166
:10500000C0E912212E922A9A0F9E29915A4086EACF
:105010000B06C0E91C2623963292DDE9077989EA5E
:10502000030987EA0B07C0E92697CDF81891DDF848
:105030008890099A179789EA030982EA0B02C0E966
:1050400030920192DDE90512DDE903689246026BB8
:105050004FEA1858170348EA0638CDF81080026E58
:1050600047EA165BD302DDE90A28540D6A0542EAD5
:10507000DC220692D0F894204FEA4C5747EAD22718
:10508000019A05974FEA823C4FEA8935D0F8C4204F
:1050900043EA585345EA9245DDE9057244EAC826D9
:1050A0004CEA994CDDF810806F4082EA0C02CDE9A1
:1050B000077288EA060806EA08048BEA03098AEA06
:1050C000040203EA090781EA07042F942292DDE92A
:1050D000057246EA07041A4384EA080482EA0902D0
:1050E00018942B92DDE9077205EA07080CEA020220
:1050F00053402D9386EA080645EA0A037B40089A46
:105100004CEA010454402BEA0107DDF8108087EADD
:105110000C072A96319A28EA0A082597199488EAF2
:1051200005084FEA027C3E9F3A93CDF8F080C269B1
:10513000390741EA12110791309129992E9A4FEAC5
:10514000015848EA1238CDF818801505C16CDDF811
:10515000448045EA113505954FEAC8021E9D416D10
:10516000EC00DDE9278644EA51744CEA171CD0F8BC
:10517000801042EA55774D034FEAD64949EA48394B
:1051800045EAD845CDE90D95DDF8B0801F9A4FEA84
:10519000D806DDE9055890F8B01046EA42764B078C
:1051A00043EAD20385EA040A89EA06090E9D88EAE1
:1051B0000708CDF8449085EA030B07EA080207992F
:1051C00004EA0A058CEA0202694029922E91DDE97F
:1051D0000D5944EA050147EA090281EA0A013491BE
:1051E00082EA0802279203EA0B0187EA0102079983
:1051F000319246EA0102DDF8449043EA0C0181EA6B
:105200000B01379182EA090206EA090A3E9284EA12
:105210000A043894DDE90558309928EA0C08CA4395
:1052200015407540529A88EA030812EB020CCDF83B
:10523000D4801E951B99C26849414CEAD27C0E91DC
:10524000CDF848C0DDE91C72CDF828C00F91C16BC4
:1052500092014FEA871C42EA97624CEA916C1A9ECF
:10526000CDF870C0119274064899179F44EAD11482
:105270004B06C16E4FEA072ADDF8189143EAD113B5
:105280004AEA196ACDF834A0D0F89C504FEA0921B7
:1052900041EA1569139E429DB70447EA9537D0F855
:1052A000A410AD0445EA91358CEA030C89EA0501A6
:1052B00062408AEA070BCDF820C013970B9103EAEE
:1052C0000C06DDF828C00E9904EA02088CEA060CE8
:1052D00081EA0801CDF8C0C03F91DDF834A043EA6F
:1052E000090844EA0A0656403D960B99DDF820C0AD
:1052F00005EA010207EA0B014C403B940E9988EA4B
:105300000C085340CDF8188142930F43DDF828C0B4
:105310000B9945EA0C064E4087EA0B072896399709
:10532000DDE911410F9ACE4394431C9B13993340FE
:105330006B404C40CDE91234339A44994FEAC2682D
:1053400048EA5118CD06416A369A45EA5115079543
:105350001A95816A4FEA127C0D011699439A4CEA1C
:10536000011C45EA117B93025099CDF810C043EA25
:105370009153C26D890241EA9251DDE91424E5039B
:1053800045EA5249D403D0F88C2044EA52440B94A5
:1053900090F8B8201706409A109C160A46EA046650
:1053A00047EA14278BEA03050B9C0F95744089EAA2
:1053B0000705CDE910450F9D8CEA010C03EA0504B1
:1053C000079D01EA0C0288EA040A5540CDF87CA04A
:1053D0002C950B9C43EA090A0F9D41EA04028AEAD4
:1053E000050A82EA0C09DDE91045CDE91C9A06EAB6
:1053F000040C07EA050281EA0C015340CDE91613BB
:10540000079D47EA080946EA0502119D624089EABC
:105410000509CDE91429DDF810C01A9D2CEA050C08
:105420002BEA08058CEA060C7D40CDE91AC5017C03
:105430004C9A8C072699920844EA910442EA8172B8
:1054400009943394B0F840104A9B4FEAC1584199EF
:105450005F0A47EAC15748EA5128CDE90778016F4A
:10546000239BC901329C41EA53664FEA5469816F1C
:1054700049EAC31A4F02249B2199DC0D47EAD15B0C
:1054800044EA4124209B4E999D00059445EA917C75
:105490008B00D0F8AC10079F43EA917387EA0A07A4
:1054A0000C975C408BEA0C07CDE9104788EA0608A8
:1054B000099C0C9F06EA08014C400AEA070982EAA7
:1054C0000905CDE92054059C0C9F4AEA040946EAE7
:1054D0000B0189EA070981EA0801CDE90B91DDE9B1
:1054E000104703EA04080CEA07058AEA080986EA75
:1054F0000501CDE90491099C43EA020A4CEA04053E
:105500007D400395DDE90778109C97438AEA040BF8
:10551000339C5F4028EA040888EA0C08CDE90F783C
:10552000FE4B2F9903EBCE034C93D3E90043229A11
:1055300059406240CDE90021299D2E9C309F624058
:105540006940099548972C9D3F9CDDF87CA04394C9
:105550006F4084EA0A047A406140DDE920456940F1
:105560006240419108924F91CDE93F122B9C189FC8
:105570000A972994349A279930924C4023913D9B65
:105580004699DDE91C9A4B932491574081EA090121
:105590004F40DDE90B1983EA0A035C404F4084EA7F
:1055A0000904CDE94947369733942D9D31992A9EB8
:1055B0003496389B2D914E942F955E404D404493E8
:1055C000DDE91613429ADDF8ECC03292CDF89CC0AA
:1055D0004A40DDE904198CEA030C85EA0C0585EAEA
:1055E000090556404E402B9652953A9C2A94319587
:1055F0003E9ADDF86480379B3D95CDF8EC8088EAD3
:1056000003081193289D399B38965440269219938C
:10561000DDE9142955406C4083EA0903039D88EABB
:10562000030888EA050884EA0B043E94CDF84C810F
:105630003A94259ACDF8DC803992359B3C9E25938F
:1056400022961E9CCDF81C81189466405A40DDE9D4
:105650001234DDE91AC5DDE90F786C4083EA0C03EA
:1056600062405E4082EA08027E405192CDE94526C2
:10567000369F339B17EB070C5B4153404E9CDDE993
:1056800000214CEAD47C8CEA060C82EA0C025940D8
:10569000CDE900212E9C099D84EA0C045D403694DE
:1056A0002E95489F4E9487EA0C07439C0E972C9D9D
:1056B0005C4085EA0C055594359448952C95DDE9B8
:1056C0002054DDF87CA05C408AEA030ACDF878A07B
:1056D00085EA0C05509433943C95389E319DB6195B
:1056E0006D415299089A46EAD176419956404D400B
:1056F0000A9F309A23997240299C77406C403897D2
:1057000029946940CDE906125A924B9B24996B402B
:105710007140219354943091DDE91C9A89EA06097D
:10572000CDF858918AEA050ACDF808914B93CDF847
:10573000C4A0DDE90B91694089EA0609CDE91C9115
:1057400043913A9C539914EB040ADDE949474AEA2C
:10575000D17ADDF81C818AEA070A48EB080888EA52
:105760000408349E2D9986EA0A0681EA0801449BC2
:105770002D912F9D4A96329ADDF89CC083EA0A0348
:1057800082EA0A02499134938CEA080CCDF820C0D1
:105790005C92DDE9161383EA0803419281EA0A016B
:1057A00023933291DDE9049185EA080524961F953B
:1057B000479389EA0A0981EA0801CDF86091CDF89A
:1057C000E8900D91DDE94526B71942EB0201519AA7
:1057D0002B9E47EAD2772A9C77403D9D7C406940CA
:1057E000DDF8EC80449488EA0108269ACDF8BC8064
:1057F0007A40119B469220924B401793199B289D0B
:105800004B407D40CDF8F480CDE92A53DDE91429E1
:10581000DA468AEA070A7A40DDF80CB03B93169222
:105820008BEA010BCDF848A1CDE926AB89EA010945
:10583000DDE93F1212EB020A4F9ADDF8DC804AEAFA
:10584000D27A49413E9C81EA0801229E8AEA040AF2
:10585000399A86EA0A062296259B4A40189C379276
:105860004B40289284EA0A04399314941193DDE999
:10587000123483EA0A033E934C40DDE91AC5CDE9B0
:1058800018344D408CEA0A0C2595CDF868C00B956C
:10589000DDE90F78DDE900B287EA0A0792465A9AF5
:1058A00088EA01081603DDE90612150D45EA0135FF
:1058B00046EA1156CDE90F655C9ADDF820C0D402A6
:1058C000419A44EA5C54530D169A43EACC23550599
:1058D00045EAD92506954FEA883C109D4CEA974C3D
:1058E0005D404FEA4951BF03089541EAD22147EA9A
:1058F0009847069D89467D4081EA0C01CDE9045117
:105900006640089D04EA06081D408BEA05028AEA03
:105910000801C0E90021CDE9151201E020DA0708ED
:10592000069D44EA090143EA0502089D71406A4068
:10593000C0E90221DDE9045107EA05090CEA010189
:1059400083EA09034C40C0E90434DDE9041547EA61
:105950000B094CEA0A0389EA01096B40C0E9069386
:10596000DDE90F6525EA0B0526EA0A067D4086EA91
:105970000C06C0E90856DDF8BC80449C4FEA087C60
:105980002507DDF8F4804CEA141C45EA1815119B34
:10599000149C4FEA035806951295250548EA1438D9
:1059A000399B359CDDF8589145EA133B4FEA493560
:1059B000DDF80891DDF8C4A00E9F4FEAD949E40054
:1059C00049EA4A3944EA5776CDF81480F900CDF80F
:1059D0002090559CDDF8609141EA54724FEA49737A
:1059E000DDF8E8900D994FEAD90745EADA4ADDF883
:1059F000209047EA41778BEA020543EAD1030C95F0
:105A000089EA07098AEA0305CDF83C900A950C9DBE
:105A100088EA060802EA050106EA0804069D4D40E8
:105A20008CEA0401C0E90A51DDF820900C9D42EA9D
:105A3000090146EA0A04694084EA0804C0E90C1432
:105A4000DDF83C900A9D07EA09081D4082EA080239
:105A500086EA0504C0E90E24069DDDF83C9047EA7D
:105A600005010A9D43EA0C0281EA09016A40C0E986
:105A70001012129DDDF814802BEA050528EA0C08A7
:105A80007D4088EA0308C0E91258389F299C17EB2B
:105A9000070844EB0402549C2D9948EAD478CDF8C9
:105AA0003080CDF82480349B4FEA811848EA93680F
:105AB0009C01DDE92A5349995E0644EA916B46EA66
:105AC000D51669060B9DDDF868C02C02CDF8508014
:105AD0004FEA0C283B9B259D44EA1C64049448EA49
